{
  "_format": "hh-sol-artifact-1",
  "contractName": "Lock",
  "sourceName": "contracts/Lock.sol",
  "abi": [
    {
      "inputs": [],
      "stateMutability": "nonpayable",
      "type": "constructor"
    },
    {
      "anonymous": false,
      "inputs": [
        {
          "indexed": true,
          "internalType": "address",
          "name": "owner",
          "type": "address"
        },
        {
          "indexed": true,
          "internalType": "address",
          "name": "approved",
          "type": "address"
        },
        {
          "indexed": true,
          "internalType": "uint256",
          "name": "tokenId",
          "type": "uint256"
        }
      ],
      "name": "Approval",
      "type": "event"
    },
    {
      "anonymous": false,
      "inputs": [
        {
          "indexed": true,
          "internalType": "address",
          "name": "owner",
          "type": "address"
        },
        {
          "indexed": true,
          "internalType": "address",
          "name": "operator",
          "type": "address"
        },
        {
          "indexed": false,
          "internalType": "bool",
          "name": "approved",
          "type": "bool"
        }
      ],
      "name": "ApprovalForAll",
      "type": "event"
    },
    {
      "anonymous": false,
      "inputs": [
        {
          "indexed": true,
          "internalType": "address",
          "name": "from",
          "type": "address"
        },
        {
          "indexed": true,
          "internalType": "address",
          "name": "to",
          "type": "address"
        },
        {
          "indexed": true,
          "internalType": "uint256",
          "name": "tokenId",
          "type": "uint256"
        }
      ],
      "name": "Transfer",
      "type": "event"
    },
    {
      "inputs": [
        {
          "internalType": "string",
          "name": "name",
          "type": "string"
        },
        {
          "internalType": "address",
          "name": "userAccount",
          "type": "address"
        },
        {
          "internalType": "string",
          "name": "description",
          "type": "string"
        }
      ],
      "name": "addProduct",
      "outputs": [],
      "stateMutability": "nonpayable",
      "type": "function"
    },
    {
      "inputs": [
        {
          "internalType": "string",
          "name": "name",
          "type": "string"
        },
        {
          "internalType": "address",
          "name": "userAccount",
          "type": "address"
        },
        {
          "internalType": "string",
          "name": "description",
          "type": "string"
        },
        {
          "internalType": "address[]",
          "name": "allowed",
          "type": "address[]"
        }
      ],
      "name": "addProductWithAllowed",
      "outputs": [],
      "stateMutability": "nonpayable",
      "type": "function"
    },
    {
      "inputs": [
        {
          "internalType": "address",
          "name": "to",
          "type": "address"
        },
        {
          "internalType": "uint256",
          "name": "tokenId",
          "type": "uint256"
        }
      ],
      "name": "approve",
      "outputs": [],
      "stateMutability": "nonpayable",
      "type": "function"
    },
    {
      "inputs": [
        {
          "internalType": "address",
          "name": "owner",
          "type": "address"
        }
      ],
      "name": "balanceOf",
      "outputs": [
        {
          "internalType": "uint256",
          "name": "",
          "type": "uint256"
        }
      ],
      "stateMutability": "view",
      "type": "function"
    },
    {
      "inputs": [
        {
          "internalType": "uint256",
          "name": "productId",
          "type": "uint256"
        },
        {
          "internalType": "address",
          "name": "userToCheck",
          "type": "address"
        }
      ],
      "name": "checkOwner",
      "outputs": [
        {
          "internalType": "bool",
          "name": "",
          "type": "bool"
        }
      ],
      "stateMutability": "view",
      "type": "function"
    },
    {
      "inputs": [
        {
          "internalType": "uint256",
          "name": "tokenId",
          "type": "uint256"
        }
      ],
      "name": "getApproved",
      "outputs": [
        {
          "internalType": "address",
          "name": "",
          "type": "address"
        }
      ],
      "stateMutability": "view",
      "type": "function"
    },
    {
      "inputs": [
        {
          "internalType": "uint256",
          "name": "productId",
          "type": "uint256"
        },
        {
          "internalType": "address",
          "name": "userAccount",
          "type": "address"
        },
        {
          "internalType": "address",
          "name": "userToGrantPermission",
          "type": "address"
        }
      ],
      "name": "grantPermission",
      "outputs": [],
      "stateMutability": "nonpayable",
      "type": "function"
    },
    {
      "inputs": [
        {
          "internalType": "uint256",
          "name": "productId",
          "type": "uint256"
        },
        {
          "internalType": "address",
          "name": "userToCheckAllowed",
          "type": "address"
        }
      ],
      "name": "isAllowed",
      "outputs": [
        {
          "internalType": "bool",
          "name": "",
          "type": "bool"
        }
      ],
      "stateMutability": "view",
      "type": "function"
    },
    {
      "inputs": [
        {
          "internalType": "address",
          "name": "owner",
          "type": "address"
        },
        {
          "internalType": "address",
          "name": "operator",
          "type": "address"
        }
      ],
      "name": "isApprovedForAll",
      "outputs": [
        {
          "internalType": "bool",
          "name": "",
          "type": "bool"
        }
      ],
      "stateMutability": "view",
      "type": "function"
    },
    {
      "inputs": [
        {
          "internalType": "address",
          "name": "userAccount",
          "type": "address"
        }
      ],
      "name": "myPermissions",
      "outputs": [
        {
          "components": [
            {
              "internalType": "string",
              "name": "name",
              "type": "string"
            },
            {
              "internalType": "string",
              "name": "description",
              "type": "string"
            },
            {
              "internalType": "address",
              "name": "ownerAddress",
              "type": "address"
            },
            {
              "internalType": "address[]",
              "name": "allowedToUse",
              "type": "address[]"
            },
            {
              "internalType": "uint256",
              "name": "productId",
              "type": "uint256"
            }
          ],
          "internalType": "struct Product[]",
          "name": "",
          "type": "tuple[]"
        }
      ],
      "stateMutability": "view",
      "type": "function"
    },
    {
      "inputs": [
        {
          "internalType": "address",
          "name": "userAccount",
          "type": "address"
        }
      ],
      "name": "myProducts",
      "outputs": [
        {
          "components": [
            {
              "internalType": "string",
              "name": "name",
              "type": "string"
            },
            {
              "internalType": "string",
              "name": "description",
              "type": "string"
            },
            {
              "internalType": "address",
              "name": "ownerAddress",
              "type": "address"
            },
            {
              "internalType": "address[]",
              "name": "allowedToUse",
              "type": "address[]"
            },
            {
              "internalType": "uint256",
              "name": "productId",
              "type": "uint256"
            }
          ],
          "internalType": "struct Product[]",
          "name": "",
          "type": "tuple[]"
        }
      ],
      "stateMutability": "view",
      "type": "function"
    },
    {
      "inputs": [],
      "name": "name",
      "outputs": [
        {
          "internalType": "string",
          "name": "",
          "type": "string"
        }
      ],
      "stateMutability": "view",
      "type": "function"
    },
    {
      "inputs": [
        {
          "internalType": "uint256",
          "name": "tokenId",
          "type": "uint256"
        }
      ],
      "name": "ownerOf",
      "outputs": [
        {
          "internalType": "address",
          "name": "",
          "type": "address"
        }
      ],
      "stateMutability": "view",
      "type": "function"
    },
    {
      "inputs": [
        {
          "internalType": "uint256",
          "name": "productId",
          "type": "uint256"
        },
        {
          "internalType": "address",
          "name": "userAccount",
          "type": "address"
        },
        {
          "internalType": "address",
          "name": "userToRevokePermission",
          "type": "address"
        }
      ],
      "name": "revokePermission",
      "outputs": [],
      "stateMutability": "nonpayable",
      "type": "function"
    },
    {
      "inputs": [
        {
          "internalType": "address",
          "name": "from",
          "type": "address"
        },
        {
          "internalType": "address",
          "name": "to",
          "type": "address"
        },
        {
          "internalType": "uint256",
          "name": "tokenId",
          "type": "uint256"
        }
      ],
      "name": "safeTransferFrom",
      "outputs": [],
      "stateMutability": "nonpayable",
      "type": "function"
    },
    {
      "inputs": [
        {
          "internalType": "address",
          "name": "from",
          "type": "address"
        },
        {
          "internalType": "address",
          "name": "to",
          "type": "address"
        },
        {
          "internalType": "uint256",
          "name": "tokenId",
          "type": "uint256"
        },
        {
          "internalType": "bytes",
          "name": "_data",
          "type": "bytes"
        }
      ],
      "name": "safeTransferFrom",
      "outputs": [],
      "stateMutability": "nonpayable",
      "type": "function"
    },
    {
      "inputs": [
        {
          "internalType": "address",
          "name": "operator",
          "type": "address"
        },
        {
          "internalType": "bool",
          "name": "approved",
          "type": "bool"
        }
      ],
      "name": "setApprovalForAll",
      "outputs": [],
      "stateMutability": "nonpayable",
      "type": "function"
    },
    {
      "inputs": [
        {
          "internalType": "bytes4",
          "name": "interfaceId",
          "type": "bytes4"
        }
      ],
      "name": "supportsInterface",
      "outputs": [
        {
          "internalType": "bool",
          "name": "",
          "type": "bool"
        }
      ],
      "stateMutability": "view",
      "type": "function"
    },
    {
      "inputs": [],
      "name": "symbol",
      "outputs": [
        {
          "internalType": "string",
          "name": "",
          "type": "string"
        }
      ],
      "stateMutability": "view",
      "type": "function"
    },
    {
      "inputs": [
        {
          "internalType": "uint256",
          "name": "tokenId",
          "type": "uint256"
        }
      ],
      "name": "tokenURI",
      "outputs": [
        {
          "internalType": "string",
          "name": "",
          "type": "string"
        }
      ],
      "stateMutability": "view",
      "type": "function"
    },
    {
      "inputs": [
        {
          "internalType": "address",
          "name": "from",
          "type": "address"
        },
        {
          "internalType": "address",
          "name": "to",
          "type": "address"
        },
        {
          "internalType": "uint256",
          "name": "tokenId",
          "type": "uint256"
        }
      ],
      "name": "transferFrom",
      "outputs": [],
      "stateMutability": "nonpayable",
      "type": "function"
    },
    {
      "inputs": [
        {
          "internalType": "uint256",
          "name": "productId",
          "type": "uint256"
        },
        {
          "internalType": "address",
          "name": "oldOwner",
          "type": "address"
        },
        {
          "internalType": "address",
          "name": "newOwner",
          "type": "address"
        }
      ],
      "name": "transferOwnership",
      "outputs": [],
      "stateMutability": "nonpayable",
      "type": "function"
    }
  ],
  "bytecode": "0x608060405260006009553480156200001657600080fd5b506040518060400160405280600481526020017f4c6f636b000000000000000000000000000000000000000000000000000000008152506040518060400160405280600381526020017f4c434b000000000000000000000000000000000000000000000000000000000081525081600090805190602001906200009b929190620000bd565b508060019080519060200190620000b4929190620000bd565b505050620001d2565b828054620000cb906200016d565b90600052602060002090601f016020900481019282620000ef57600085556200013b565b82601f106200010a57805160ff19168380011785556200013b565b828001600101855582156200013b579182015b828111156200013a5782518255916020019190600101906200011d565b5b5090506200014a91906200014e565b5090565b5b80821115620001695760008160009055506001016200014f565b5090565b600060028204905060018216806200018657607f821691505b602082108114156200019d576200019c620001a3565b5b50919050565b7f4e487b7100000000000000000000000000000000000000000000000000000000600052602260045260246000fd5b614c7d80620001e26000396000f3fe608060405234801561001057600080fd5b50600436106101425760003560e01c8063952388c9116100b8578063c5ea8cb21161007c578063c5ea8cb214610397578063c87b56dd146103b3578063df8c5280146103e3578063e661634814610413578063e985e9c51461042f578063f58d82a11461045f57610142565b8063952388c9146102f557806395d89b4114610311578063a22cb4651461032f578063b88d4fde1461034b578063be8dbea61461036757610142565b806323b872dd1161010a57806323b872dd146101fd57806342842e0e146102195780635faa299a146102355780636352211e1461026557806370a08231146102955780637790ca4d146102c557610142565b806301ffc9a71461014757806306fdde0314610177578063081812fc14610195578063095ea7b3146101c55780631e734a6a146101e1575b600080fd5b610161600480360381019061015c91906139ee565b61047b565b60405161016e919061415f565b60405180910390f35b61017f61055d565b60405161018c919061417a565b60405180910390f35b6101af60048036038101906101aa9190613b6a565b6105ef565b6040516101bc91906140d6565b60405180910390f35b6101df60048036038101906101da91906139b2565b610674565b005b6101fb60048036038101906101f69190613abf565b61078c565b005b610217600480360381019061021291906138ac565b6109f8565b005b610233600480360381019061022e91906138ac565b610a58565b005b61024f600480360381019061024a9190613b93565b610a78565b60405161025c919061415f565b60405180910390f35b61027f600480360381019061027a9190613b6a565b610b76565b60405161028c91906140d6565b60405180910390f35b6102af60048036038101906102aa9190613847565b610c28565b6040516102bc919061435c565b60405180910390f35b6102df60048036038101906102da9190613847565b610ce0565b6040516102ec919061413d565b60405180910390f35b61030f600480360381019061030a9190613bcf565b611107565b005b6103196119fd565b604051610326919061417a565b60405180910390f35b61034960048036038101906103449190613976565b611a8f565b005b610365600480360381019061036091906138fb565b611aa5565b005b610381600480360381019061037c9190613b93565b611b07565b60405161038e919061415f565b60405180910390f35b6103b160048036038101906103ac9190613bcf565b611b7b565b005b6103cd60048036038101906103c89190613b6a565b612101565b6040516103da919061417a565b60405180910390f35b6103fd60048036038101906103f89190613847565b6121a8565b60405161040a919061413d565b60405180910390f35b61042d60048036038101906104289190613a40565b6125cf565b005b61044960048036038101906104449190613870565b612775565b604051610456919061415f565b60405180910390f35b61047960048036038101906104749190613bcf565b612809565b005b60007f80ac58cd000000000000000000000000000000000000000000000000000000007bffffffffffffffffffffffffffffffffffffffffffffffffffffffff1916827bffffffffffffffffffffffffffffffffffffffffffffffffffffffff1916148061054657507f5b5e139f000000000000000000000000000000000000000000000000000000007bffffffffffffffffffffffffffffffffffffffffffffffffffffffff1916827bffffffffffffffffffffffffffffffffffffffffffffffffffffffff1916145b806105565750610555826128ff565b5b9050919050565b60606000805461056c90614661565b80601f016020809104026020016040519081016040528092919081815260200182805461059890614661565b80156105e55780601f106105ba576101008083540402835291602001916105e5565b820191906000526020600020905b8154815290600101906020018083116105c857829003601f168201915b5050505050905090565b60006105fa82612969565b610639576040517f08c379a0000000000000000000000000000000000000000000000000000000008152600401610630906142dc565b60405180910390fd5b6004600083815260200190815260200160002060009054906101000a900473ffffffffffffffffffffffffffffffffffffffff169050919050565b600061067f82610b76565b90508073ffffffffffffffffffffffffffffffffffffffff168373ffffffffffffffffffffffffffffffffffffffff1614156106f0576040517f08c379a00000000000000000000000000000000000000000000000000000000081526004016106e79061431c565b60405180910390fd5b8073ffffffffffffffffffffffffffffffffffffffff1661070f6129d5565b73ffffffffffffffffffffffffffffffffffffffff16148061073e575061073d816107386129d5565b612775565b5b61077d576040517f08c379a00000000000000000000000000000000000000000000000000000000081526004016107749061425c565b60405180910390fd5b61078783836129dd565b505050565b60006040518060a001604052808681526020018481526020018573ffffffffffffffffffffffffffffffffffffffff16815260200183815260200160095481525090506107db84600954612a96565b80600860006009548152602001908152602001600020600082015181600001908051906020019061080d929190613506565b50602082015181600101908051906020019061082a929190613506565b5060408201518160020160006101000a81548173ffffffffffffffffffffffffffffffffffffffff021916908373ffffffffffffffffffffffffffffffffffffffff160217905550606082015181600301908051906020019061088e92919061358c565b5060808201518160040155905050600760008573ffffffffffffffffffffffffffffffffffffffff1673ffffffffffffffffffffffffffffffffffffffff16815260200190815260200160002060095490806001815401808255809150506001900390600052602060002001600090919091909150556109116009548586612809565b60005b82518110156109d8576006600084838151811061095a577f4e487b7100000000000000000000000000000000000000000000000000000000600052603260045260246000fd5b602002602001015173ffffffffffffffffffffffffffffffffffffffff1673ffffffffffffffffffffffffffffffffffffffff168152602001908152602001600020600954908060018154018082558091505060019003906000526020600020016000909190919091505580806109d0906146c4565b915050610914565b50600960008154809291906109ec906146c4565b91905055505050505050565b610a09610a036129d5565b82612c70565b610a48576040517f08c379a0000000000000000000000000000000000000000000000000000000008152600401610a3f9061433c565b60405180910390fd5b610a53838383612d4e565b505050565b610a7383838360405180602001604052806000815250611aa5565b505050565b600080600090505b6008600085815260200190815260200160002060030180549050811015610b6a578273ffffffffffffffffffffffffffffffffffffffff16600860008681526020019081526020016000206003018281548110610b06577f4e487b7100000000000000000000000000000000000000000000000000000000600052603260045260246000fd5b9060005260206000200160009054906101000a900473ffffffffffffffffffffffffffffffffffffffff1673ffffffffffffffffffffffffffffffffffffffff161415610b57576001915050610b70565b8080610b62906146c4565b915050610a80565b50600090505b92915050565b6000806002600084815260200190815260200160002060009054906101000a900473ffffffffffffffffffffffffffffffffffffffff169050600073ffffffffffffffffffffffffffffffffffffffff168173ffffffffffffffffffffffffffffffffffffffff161415610c1f576040517f08c379a0000000000000000000000000000000000000000000000000000000008152600401610c169061429c565b60405180910390fd5b80915050919050565b60008073ffffffffffffffffffffffffffffffffffffffff168273ffffffffffffffffffffffffffffffffffffffff161415610c99576040517f08c379a0000000000000000000000000000000000000000000000000000000008152600401610c909061427c565b60405180910390fd5b600360008373ffffffffffffffffffffffffffffffffffffffff1673ffffffffffffffffffffffffffffffffffffffff168152602001908152602001600020549050919050565b60606000600660008473ffffffffffffffffffffffffffffffffffffffff1673ffffffffffffffffffffffffffffffffffffffff1681526020019081526020016000208054905067ffffffffffffffff811115610d66577f4e487b7100000000000000000000000000000000000000000000000000000000600052604160045260246000fd5b604051908082528060200260200182016040528015610d9f57816020015b610d8c613616565b815260200190600190039081610d845790505b50905060005b600660008573ffffffffffffffffffffffffffffffffffffffff1673ffffffffffffffffffffffffffffffffffffffff168152602001908152602001600020805490508110156110fd57600060086000600660008873ffffffffffffffffffffffffffffffffffffffff1673ffffffffffffffffffffffffffffffffffffffff1681526020019081526020016000208481548110610e6c577f4e487b7100000000000000000000000000000000000000000000000000000000600052603260045260246000fd5b906000526020600020015481526020019081526020016000206040518060a0016040529081600082018054610ea090614661565b80601f0160208091040260200160405190810160405280929190818152602001828054610ecc90614661565b8015610f195780601f10610eee57610100808354040283529160200191610f19565b820191906000526020600020905b815481529060010190602001808311610efc57829003601f168201915b50505050508152602001600182018054610f3290614661565b80601f0160208091040260200160405190810160405280929190818152602001828054610f5e90614661565b8015610fab5780601f10610f8057610100808354040283529160200191610fab565b820191906000526020600020905b815481529060010190602001808311610f8e57829003601f168201915b505050505081526020016002820160009054906101000a900473ffffffffffffffffffffffffffffffffffffffff1673ffffffffffffffffffffffffffffffffffffffff1673ffffffffffffffffffffffffffffffffffffffff1681526020016003820180548060200260200160405190810160405280929190818152602001828054801561108f57602002820191906000526020600020905b8160009054906101000a900473ffffffffffffffffffffffffffffffffffffffff1673ffffffffffffffffffffffffffffffffffffffff1681526020019060010190808311611045575b505050505081526020016004820154815250509050808383815181106110de577f4e487b7100000000000000000000000000000000000000000000000000000000600052603260045260246000fd5b60200260200101819052505080806110f5906146c4565b915050610da5565b5080915050919050565b6111118383611b07565b61111a576119f8565b611125838383612809565b6000805b600760008573ffffffffffffffffffffffffffffffffffffffff1673ffffffffffffffffffffffffffffffffffffffff168152602001908152602001600020805490508110156113f85784600760008673ffffffffffffffffffffffffffffffffffffffff1673ffffffffffffffffffffffffffffffffffffffff16815260200190815260200160002082815481106111eb577f4e487b7100000000000000000000000000000000000000000000000000000000600052603260045260246000fd5b906000526020600020015414156113e55760019150600760008573ffffffffffffffffffffffffffffffffffffffff1673ffffffffffffffffffffffffffffffffffffffff1681526020019081526020016000206001600760008773ffffffffffffffffffffffffffffffffffffffff1673ffffffffffffffffffffffffffffffffffffffff1681526020019081526020016000208054905061128e9190614577565b815481106112c5577f4e487b7100000000000000000000000000000000000000000000000000000000600052603260045260246000fd5b9060005260206000200154600760008673ffffffffffffffffffffffffffffffffffffffff1673ffffffffffffffffffffffffffffffffffffffff1681526020019081526020016000208281548110611347577f4e487b7100000000000000000000000000000000000000000000000000000000600052603260045260246000fd5b9060005260206000200181905550600760008573ffffffffffffffffffffffffffffffffffffffff1673ffffffffffffffffffffffffffffffffffffffff1681526020019081526020016000208054806113ca577f4e487b7100000000000000000000000000000000000000000000000000000000600052603160045260246000fd5b600190038181906000526020600020016000905590556113f8565b80806113f0906146c4565b915050611129565b508061140457506119f8565b600083905060005b60086000878152602001908152602001600020600301805490508110156116a65760086000878152602001908152602001600020600301818154811061147b577f4e487b7100000000000000000000000000000000000000000000000000000000600052603260045260246000fd5b9060005260206000200160009054906101000a900473ffffffffffffffffffffffffffffffffffffffff1673ffffffffffffffffffffffffffffffffffffffff168273ffffffffffffffffffffffffffffffffffffffff1614156116935760086000878152602001908152602001600020600301600160086000898152602001908152602001600020600301805490506115159190614577565b8154811061154c577f4e487b7100000000000000000000000000000000000000000000000000000000600052603260045260246000fd5b9060005260206000200160009054906101000a900473ffffffffffffffffffffffffffffffffffffffff166008600088815260200190815260200160002060030182815481106115c5577f4e487b7100000000000000000000000000000000000000000000000000000000600052603260045260246000fd5b9060005260206000200160006101000a81548173ffffffffffffffffffffffffffffffffffffffff021916908373ffffffffffffffffffffffffffffffffffffffff16021790555060086000878152602001908152602001600020600301805480611659577f4e487b7100000000000000000000000000000000000000000000000000000000600052603160045260246000fd5b6001900381819060005260206000200160006101000a81549073ffffffffffffffffffffffffffffffffffffffff021916905590556116a6565b808061169e906146c4565b91505061140c565b5060005b600660008373ffffffffffffffffffffffffffffffffffffffff1673ffffffffffffffffffffffffffffffffffffffff1681526020019081526020016000208054905081101561197557600660008373ffffffffffffffffffffffffffffffffffffffff1673ffffffffffffffffffffffffffffffffffffffff168152602001908152602001600020818154811061176b577f4e487b7100000000000000000000000000000000000000000000000000000000600052603260045260246000fd5b906000526020600020015486141561196257600660008373ffffffffffffffffffffffffffffffffffffffff1673ffffffffffffffffffffffffffffffffffffffff1681526020019081526020016000206001600660008573ffffffffffffffffffffffffffffffffffffffff1673ffffffffffffffffffffffffffffffffffffffff1681526020019081526020016000208054905061180b9190614577565b81548110611842577f4e487b7100000000000000000000000000000000000000000000000000000000600052603260045260246000fd5b9060005260206000200154600660008473ffffffffffffffffffffffffffffffffffffffff1673ffffffffffffffffffffffffffffffffffffffff16815260200190815260200160002082815481106118c4577f4e487b7100000000000000000000000000000000000000000000000000000000600052603260045260246000fd5b9060005260206000200181905550600660008373ffffffffffffffffffffffffffffffffffffffff1673ffffffffffffffffffffffffffffffffffffffff168152602001908152602001600020805480611947577f4e487b7100000000000000000000000000000000000000000000000000000000600052603160045260246000fd5b60019003818190600052602060002001600090559055611975565b808061196d906146c4565b9150506116aa565b50600760008473ffffffffffffffffffffffffffffffffffffffff1673ffffffffffffffffffffffffffffffffffffffff16815260200190815260200160002085908060018154018082558091505060019003906000526020600020016000909190919091505560006119e786610b76565b90506119f4818688612d4e565b5050505b505050565b606060018054611a0c90614661565b80601f0160208091040260200160405190810160405280929190818152602001828054611a3890614661565b8015611a855780601f10611a5a57610100808354040283529160200191611a85565b820191906000526020600020905b815481529060010190602001808311611a6857829003601f168201915b5050505050905090565b611aa1611a9a6129d5565b8383612fb5565b5050565b611ab6611ab06129d5565b83612c70565b611af5576040517f08c379a0000000000000000000000000000000000000000000000000000000008152600401611aec9061433c565b60405180910390fd5b611b0184848484613122565b50505050565b6000806008600085815260200190815260200160002060020160009054906101000a900473ffffffffffffffffffffffffffffffffffffffff1690508273ffffffffffffffffffffffffffffffffffffffff168173ffffffffffffffffffffffffffffffffffffffff161491505092915050565b611b858383611b07565b611b8e576120fc565b60005b6008600085815260200190815260200160002060030180549050811015611e2b57600860008581526020019081526020016000206003018181548110611c00577f4e487b7100000000000000000000000000000000000000000000000000000000600052603260045260246000fd5b9060005260206000200160009054906101000a900473ffffffffffffffffffffffffffffffffffffffff1673ffffffffffffffffffffffffffffffffffffffff168273ffffffffffffffffffffffffffffffffffffffff161415611e18576008600085815260200190815260200160002060030160016008600087815260200190815260200160002060030180549050611c9a9190614577565b81548110611cd1577f4e487b7100000000000000000000000000000000000000000000000000000000600052603260045260246000fd5b9060005260206000200160009054906101000a900473ffffffffffffffffffffffffffffffffffffffff16600860008681526020019081526020016000206003018281548110611d4a577f4e487b7100000000000000000000000000000000000000000000000000000000600052603260045260246000fd5b9060005260206000200160006101000a81548173ffffffffffffffffffffffffffffffffffffffff021916908373ffffffffffffffffffffffffffffffffffffffff16021790555060086000858152602001908152602001600020600301805480611dde577f4e487b7100000000000000000000000000000000000000000000000000000000600052603160045260246000fd5b6001900381819060005260206000200160006101000a81549073ffffffffffffffffffffffffffffffffffffffff02191690559055611e2b565b8080611e23906146c4565b915050611b91565b5060005b600660008373ffffffffffffffffffffffffffffffffffffffff1673ffffffffffffffffffffffffffffffffffffffff168152602001908152602001600020805490508110156120fa57600660008373ffffffffffffffffffffffffffffffffffffffff1673ffffffffffffffffffffffffffffffffffffffff1681526020019081526020016000208181548110611ef0577f4e487b7100000000000000000000000000000000000000000000000000000000600052603260045260246000fd5b90600052602060002001548414156120e757600660008373ffffffffffffffffffffffffffffffffffffffff1673ffffffffffffffffffffffffffffffffffffffff1681526020019081526020016000206001600660008573ffffffffffffffffffffffffffffffffffffffff1673ffffffffffffffffffffffffffffffffffffffff16815260200190815260200160002080549050611f909190614577565b81548110611fc7577f4e487b7100000000000000000000000000000000000000000000000000000000600052603260045260246000fd5b9060005260206000200154600660008473ffffffffffffffffffffffffffffffffffffffff1673ffffffffffffffffffffffffffffffffffffffff1681526020019081526020016000208281548110612049577f4e487b7100000000000000000000000000000000000000000000000000000000600052603260045260246000fd5b9060005260206000200181905550600660008373ffffffffffffffffffffffffffffffffffffffff1673ffffffffffffffffffffffffffffffffffffffff1681526020019081526020016000208054806120cc577f4e487b7100000000000000000000000000000000000000000000000000000000600052603160045260246000fd5b600190038181906000526020600020016000905590556120fa565b80806120f2906146c4565b915050611e2f565b505b505050565b606061210c82612969565b61214b576040517f08c379a0000000000000000000000000000000000000000000000000000000008152600401612142906142fc565b60405180910390fd5b600061215561317e565b9050600081511161217557604051806020016040528060008152506121a0565b8061217f84613195565b6040516020016121909291906140b2565b6040516020818303038152906040525b915050919050565b60606000600760008473ffffffffffffffffffffffffffffffffffffffff1673ffffffffffffffffffffffffffffffffffffffff1681526020019081526020016000208054905067ffffffffffffffff81111561222e577f4e487b7100000000000000000000000000000000000000000000000000000000600052604160045260246000fd5b60405190808252806020026020018201604052801561226757816020015b612254613616565b81526020019060019003908161224c5790505b50905060005b600760008573ffffffffffffffffffffffffffffffffffffffff1673ffffffffffffffffffffffffffffffffffffffff168152602001908152602001600020805490508110156125c557600060086000600760008873ffffffffffffffffffffffffffffffffffffffff1673ffffffffffffffffffffffffffffffffffffffff1681526020019081526020016000208481548110612334577f4e487b7100000000000000000000000000000000000000000000000000000000600052603260045260246000fd5b906000526020600020015481526020019081526020016000206040518060a001604052908160008201805461236890614661565b80601f016020809104026020016040519081016040528092919081815260200182805461239490614661565b80156123e15780601f106123b6576101008083540402835291602001916123e1565b820191906000526020600020905b8154815290600101906020018083116123c457829003601f168201915b505050505081526020016001820180546123fa90614661565b80601f016020809104026020016040519081016040528092919081815260200182805461242690614661565b80156124735780601f1061244857610100808354040283529160200191612473565b820191906000526020600020905b81548152906001019060200180831161245657829003601f168201915b505050505081526020016002820160009054906101000a900473ffffffffffffffffffffffffffffffffffffffff1673ffffffffffffffffffffffffffffffffffffffff1673ffffffffffffffffffffffffffffffffffffffff1681526020016003820180548060200260200160405190810160405280929190818152602001828054801561255757602002820191906000526020600020905b8160009054906101000a900473ffffffffffffffffffffffffffffffffffffffff1673ffffffffffffffffffffffffffffffffffffffff168152602001906001019080831161250d575b505050505081526020016004820154815250509050808383815181106125a6577f4e487b7100000000000000000000000000000000000000000000000000000000600052603260045260246000fd5b60200260200101819052505080806125bd906146c4565b91505061226d565b5080915050919050565b606060006040518060a001604052808681526020018481526020018573ffffffffffffffffffffffffffffffffffffffff168152602001838152602001600954815250905061262084600954612a96565b806008600060095481526020019081526020016000206000820151816000019080519060200190612652929190613506565b50602082015181600101908051906020019061266f929190613506565b5060408201518160020160006101000a81548173ffffffffffffffffffffffffffffffffffffffff021916908373ffffffffffffffffffffffffffffffffffffffff16021790555060608201518160030190805190602001906126d392919061358c565b5060808201518160040155905050600760008573ffffffffffffffffffffffffffffffffffffffff1673ffffffffffffffffffffffffffffffffffffffff16815260200190815260200160002060095490806001815401808255809150506001900390600052602060002001600090919091909150556127566009548586612809565b60096000815480929190612769906146c4565b91905055505050505050565b6000600560008473ffffffffffffffffffffffffffffffffffffffff1673ffffffffffffffffffffffffffffffffffffffff16815260200190815260200160002060008373ffffffffffffffffffffffffffffffffffffffff1673ffffffffffffffffffffffffffffffffffffffff16815260200190815260200160002060009054906101000a900460ff16905092915050565b6128138383611b07565b61281c576128fa565b600660008273ffffffffffffffffffffffffffffffffffffffff1673ffffffffffffffffffffffffffffffffffffffff16815260200190815260200160002083908060018154018082558091505060019003906000526020600020016000909190919091505560086000848152602001908152602001600020600301819080600181540180825580915050600190039060005260206000200160009091909190916101000a81548173ffffffffffffffffffffffffffffffffffffffff021916908373ffffffffffffffffffffffffffffffffffffffff1602179055505b505050565b60007f01ffc9a7000000000000000000000000000000000000000000000000000000007bffffffffffffffffffffffffffffffffffffffffffffffffffffffff1916827bffffffffffffffffffffffffffffffffffffffffffffffffffffffff1916149050919050565b60008073ffffffffffffffffffffffffffffffffffffffff166002600084815260200190815260200160002060009054906101000a900473ffffffffffffffffffffffffffffffffffffffff1673ffffffffffffffffffffffffffffffffffffffff1614159050919050565b600033905090565b816004600083815260200190815260200160002060006101000a81548173ffffffffffffffffffffffffffffffffffffffff021916908373ffffffffffffffffffffffffffffffffffffffff160217905550808273ffffffffffffffffffffffffffffffffffffffff16612a5083610b76565b73ffffffffffffffffffffffffffffffffffffffff167f8c5be1e5ebec7d5bd14f71427d1e84f3dd0314c0f7b2291e5b200ac8c7c3b92560405160405180910390a45050565b600073ffffffffffffffffffffffffffffffffffffffff168273ffffffffffffffffffffffffffffffffffffffff161415612b06576040517f08c379a0000000000000000000000000000000000000000000000000000000008152600401612afd906142bc565b60405180910390fd5b612b0f81612969565b15612b4f576040517f08c379a0000000000000000000000000000000000000000000000000000000008152600401612b46906141dc565b60405180910390fd5b612b5b60008383613342565b6001600360008473ffffffffffffffffffffffffffffffffffffffff1673ffffffffffffffffffffffffffffffffffffffff1681526020019081526020016000206000828254612bab91906144f0565b92505081905550816002600083815260200190815260200160002060006101000a81548173ffffffffffffffffffffffffffffffffffffffff021916908373ffffffffffffffffffffffffffffffffffffffff160217905550808273ffffffffffffffffffffffffffffffffffffffff16600073ffffffffffffffffffffffffffffffffffffffff167fddf252ad1be2c89b69c2b068fc378daa952ba7f163c4a11628f55a4df523b3ef60405160405180910390a4612c6c60008383613347565b5050565b6000612c7b82612969565b612cba576040517f08c379a0000000000000000000000000000000000000000000000000000000008152600401612cb19061423c565b60405180910390fd5b6000612cc583610b76565b90508073ffffffffffffffffffffffffffffffffffffffff168473ffffffffffffffffffffffffffffffffffffffff161480612d3457508373ffffffffffffffffffffffffffffffffffffffff16612d1c846105ef565b73ffffffffffffffffffffffffffffffffffffffff16145b80612d455750612d448185612775565b5b91505092915050565b8273ffffffffffffffffffffffffffffffffffffffff16612d6e82610b76565b73ffffffffffffffffffffffffffffffffffffffff1614612dc4576040517f08c379a0000000000000000000000000000000000000000000000000000000008152600401612dbb906141bc565b60405180910390fd5b600073ffffffffffffffffffffffffffffffffffffffff168273ffffffffffffffffffffffffffffffffffffffff161415612e34576040517f08c379a0000000000000000000000000000000000000000000000000000000008152600401612e2b906141fc565b60405180910390fd5b612e3f838383613342565b612e4a6000826129dd565b6001600360008573ffffffffffffffffffffffffffffffffffffffff1673ffffffffffffffffffffffffffffffffffffffff1681526020019081526020016000206000828254612e9a9190614577565b925050819055506001600360008473ffffffffffffffffffffffffffffffffffffffff1673ffffffffffffffffffffffffffffffffffffffff1681526020019081526020016000206000828254612ef191906144f0565b92505081905550816002600083815260200190815260200160002060006101000a81548173ffffffffffffffffffffffffffffffffffffffff021916908373ffffffffffffffffffffffffffffffffffffffff160217905550808273ffffffffffffffffffffffffffffffffffffffff168473ffffffffffffffffffffffffffffffffffffffff167fddf252ad1be2c89b69c2b068fc378daa952ba7f163c4a11628f55a4df523b3ef60405160405180910390a4612fb0838383613347565b505050565b8173ffffffffffffffffffffffffffffffffffffffff168373ffffffffffffffffffffffffffffffffffffffff161415613024576040517f08c379a000000000000000000000000000000000000000000000000000000000815260040161301b9061421c565b60405180910390fd5b80600560008573ffffffffffffffffffffffffffffffffffffffff1673ffffffffffffffffffffffffffffffffffffffff16815260200190815260200160002060008473ffffffffffffffffffffffffffffffffffffffff1673ffffffffffffffffffffffffffffffffffffffff16815260200190815260200160002060006101000a81548160ff0219169083151502179055508173ffffffffffffffffffffffffffffffffffffffff168373ffffffffffffffffffffffffffffffffffffffff167f17307eab39ab6107e8899845ad3d59bd9653f200f220920489ca2b5937696c3183604051613115919061415f565b60405180910390a3505050565b61312d848484612d4e565b6131398484848461334c565b613178576040517f08c379a000000000000000000000000000000000000000000000000000000000815260040161316f9061419c565b60405180910390fd5b50505050565b606060405180602001604052806000815250905090565b606060008214156131dd576040518060400160405280600181526020017f3000000000000000000000000000000000000000000000000000000000000000815250905061333d565b600082905060005b6000821461320f5780806131f8906146c4565b915050600a826132089190614546565b91506131e5565b60008167ffffffffffffffff811115613251577f4e487b7100000000000000000000000000000000000000000000000000000000600052604160045260246000fd5b6040519080825280601f01601f1916602001820160405280156132835781602001600182028036833780820191505090505b5090505b600085146133365760018261329c9190614577565b9150600a856132ab919061470d565b60306132b791906144f0565b60f81b8183815181106132f3577f4e487b7100000000000000000000000000000000000000000000000000000000600052603260045260246000fd5b60200101907effffffffffffffffffffffffffffffffffffffffffffffffffffffffffffff1916908160001a905350600a8561332f9190614546565b9450613287565b8093505050505b919050565b505050565b505050565b600061336d8473ffffffffffffffffffffffffffffffffffffffff166134e3565b156134d6578373ffffffffffffffffffffffffffffffffffffffff1663150b7a026133966129d5565b8786866040518563ffffffff1660e01b81526004016133b894939291906140f1565b602060405180830381600087803b1580156133d257600080fd5b505af192505050801561340357506040513d601f19601f820116820180604052508101906134009190613a17565b60015b613486573d8060008114613433576040519150601f19603f3d011682016040523d82523d6000602084013e613438565b606091505b5060008151141561347e576040517f08c379a00000000000000000000000000000000000000000000000000000000081526004016134759061419c565b60405180910390fd5b805181602001fd5b63150b7a0260e01b7bffffffffffffffffffffffffffffffffffffffffffffffffffffffff1916817bffffffffffffffffffffffffffffffffffffffffffffffffffffffff1916149150506134db565b600190505b949350505050565b6000808273ffffffffffffffffffffffffffffffffffffffff163b119050919050565b82805461351290614661565b90600052602060002090601f016020900481019282613534576000855561357b565b82601f1061354d57805160ff191683800117855561357b565b8280016001018555821561357b579182015b8281111561357a57825182559160200191906001019061355f565b5b509050613588919061365b565b5090565b828054828255906000526020600020908101928215613605579160200282015b828111156136045782518260006101000a81548173ffffffffffffffffffffffffffffffffffffffff021916908373ffffffffffffffffffffffffffffffffffffffff160217905550916020019190600101906135ac565b5b509050613612919061365b565b5090565b6040518060a001604052806060815260200160608152602001600073ffffffffffffffffffffffffffffffffffffffff16815260200160608152602001600081525090565b5b8082111561367457600081600090555060010161365c565b5090565b600061368b6136868461439c565b614377565b905080838252602082019050828560208602820111156136aa57600080fd5b60005b858110156136da57816136c08882613760565b8452602084019350602083019250506001810190506136ad565b5050509392505050565b60006136f76136f2846143c8565b614377565b90508281526020810184848401111561370f57600080fd5b61371a84828561461f565b509392505050565b6000613735613730846143f9565b614377565b90508281526020810184848401111561374d57600080fd5b61375884828561461f565b509392505050565b60008135905061376f81614beb565b92915050565b600082601f83011261378657600080fd5b8135613796848260208601613678565b91505092915050565b6000813590506137ae81614c02565b92915050565b6000813590506137c381614c19565b92915050565b6000815190506137d881614c19565b92915050565b600082601f8301126137ef57600080fd5b81356137ff8482602086016136e4565b91505092915050565b600082601f83011261381957600080fd5b8135613829848260208601613722565b91505092915050565b60008135905061384181614c30565b92915050565b60006020828403121561385957600080fd5b600061386784828501613760565b91505092915050565b6000806040838503121561388357600080fd5b600061389185828601613760565b92505060206138a285828601613760565b9150509250929050565b6000806000606084860312156138c157600080fd5b60006138cf86828701613760565b93505060206138e086828701613760565b92505060406138f186828701613832565b9150509250925092565b6000806000806080858703121561391157600080fd5b600061391f87828801613760565b945050602061393087828801613760565b935050604061394187828801613832565b925050606085013567ffffffffffffffff81111561395e57600080fd5b61396a878288016137de565b91505092959194509250565b6000806040838503121561398957600080fd5b600061399785828601613760565b92505060206139a88582860161379f565b9150509250929050565b600080604083850312156139c557600080fd5b60006139d385828601613760565b92505060206139e485828601613832565b9150509250929050565b600060208284031215613a0057600080fd5b6000613a0e848285016137b4565b91505092915050565b600060208284031215613a2957600080fd5b6000613a37848285016137c9565b91505092915050565b600080600060608486031215613a5557600080fd5b600084013567ffffffffffffffff811115613a6f57600080fd5b613a7b86828701613808565b9350506020613a8c86828701613760565b925050604084013567ffffffffffffffff811115613aa957600080fd5b613ab586828701613808565b9150509250925092565b60008060008060808587031215613ad557600080fd5b600085013567ffffffffffffffff811115613aef57600080fd5b613afb87828801613808565b9450506020613b0c87828801613760565b935050604085013567ffffffffffffffff811115613b2957600080fd5b613b3587828801613808565b925050606085013567ffffffffffffffff811115613b5257600080fd5b613b5e87828801613775565b91505092959194509250565b600060208284031215613b7c57600080fd5b6000613b8a84828501613832565b91505092915050565b60008060408385031215613ba657600080fd5b6000613bb485828601613832565b9250506020613bc585828601613760565b9150509250929050565b600080600060608486031215613be457600080fd5b6000613bf286828701613832565b9350506020613c0386828701613760565b9250506040613c1486828701613760565b9150509250925092565b6000613c2a8383613c4a565b60208301905092915050565b6000613c428383614010565b905092915050565b613c53816145ab565b82525050565b613c62816145ab565b82525050565b6000613c738261444a565b613c7d8185614490565b9350613c888361442a565b8060005b83811015613cb9578151613ca08882613c1e565b9750613cab83614476565b925050600181019050613c8c565b5085935050505092915050565b6000613cd182614455565b613cdb81856144a1565b935083602082028501613ced8561443a565b8060005b85811015613d295784840389528151613d0a8582613c36565b9450613d1583614483565b925060208a01995050600181019050613cf1565b50829750879550505050505092915050565b613d44816145bd565b82525050565b6000613d5582614460565b613d5f81856144b2565b9350613d6f81856020860161462e565b613d78816147fa565b840191505092915050565b6000613d8e8261446b565b613d9881856144c3565b9350613da881856020860161462e565b613db1816147fa565b840191505092915050565b6000613dc78261446b565b613dd181856144d4565b9350613de181856020860161462e565b613dea816147fa565b840191505092915050565b6000613e008261446b565b613e0a81856144e5565b9350613e1a81856020860161462e565b80840191505092915050565b6000613e336032836144d4565b9150613e3e8261480b565b604082019050919050565b6000613e566025836144d4565b9150613e618261485a565b604082019050919050565b6000613e79601c836144d4565b9150613e84826148a9565b602082019050919050565b6000613e9c6024836144d4565b9150613ea7826148d2565b604082019050919050565b6000613ebf6019836144d4565b9150613eca82614921565b602082019050919050565b6000613ee2602c836144d4565b9150613eed8261494a565b604082019050919050565b6000613f056038836144d4565b9150613f1082614999565b604082019050919050565b6000613f28602a836144d4565b9150613f33826149e8565b604082019050919050565b6000613f4b6029836144d4565b9150613f5682614a37565b604082019050919050565b6000613f6e6020836144d4565b9150613f7982614a86565b602082019050919050565b6000613f91602c836144d4565b9150613f9c82614aaf565b604082019050919050565b6000613fb4602f836144d4565b9150613fbf82614afe565b604082019050919050565b6000613fd76021836144d4565b9150613fe282614b4d565b604082019050919050565b6000613ffa6031836144d4565b915061400582614b9c565b604082019050919050565b600060a083016000830151848203600086015261402d8282613d83565b915050602083015184820360208601526140478282613d83565b915050604083015161405c6040860182613c4a565b50606083015184820360608601526140748282613c68565b91505060808301516140896080860182614094565b508091505092915050565b61409d81614615565b82525050565b6140ac81614615565b82525050565b60006140be8285613df5565b91506140ca8284613df5565b91508190509392505050565b60006020820190506140eb6000830184613c59565b92915050565b60006080820190506141066000830187613c59565b6141136020830186613c59565b61412060408301856140a3565b81810360608301526141328184613d4a565b905095945050505050565b600060208201905081810360008301526141578184613cc6565b905092915050565b60006020820190506141746000830184613d3b565b92915050565b600060208201905081810360008301526141948184613dbc565b905092915050565b600060208201905081810360008301526141b581613e26565b9050919050565b600060208201905081810360008301526141d581613e49565b9050919050565b600060208201905081810360008301526141f581613e6c565b9050919050565b6000602082019050818103600083015261421581613e8f565b9050919050565b6000602082019050818103600083015261423581613eb2565b9050919050565b6000602082019050818103600083015261425581613ed5565b9050919050565b6000602082019050818103600083015261427581613ef8565b9050919050565b6000602082019050818103600083015261429581613f1b565b9050919050565b600060208201905081810360008301526142b581613f3e565b9050919050565b600060208201905081810360008301526142d581613f61565b9050919050565b600060208201905081810360008301526142f581613f84565b9050919050565b6000602082019050818103600083015261431581613fa7565b9050919050565b6000602082019050818103600083015261433581613fca565b9050919050565b6000602082019050818103600083015261435581613fed565b9050919050565b600060208201905061437160008301846140a3565b92915050565b6000614381614392565b905061438d8282614693565b919050565b6000604051905090565b600067ffffffffffffffff8211156143b7576143b66147cb565b5b602082029050602081019050919050565b600067ffffffffffffffff8211156143e3576143e26147cb565b5b6143ec826147fa565b9050602081019050919050565b600067ffffffffffffffff821115614414576144136147cb565b5b61441d826147fa565b9050602081019050919050565b6000819050602082019050919050565b6000819050602082019050919050565b600081519050919050565b600081519050919050565b600081519050919050565b600081519050919050565b6000602082019050919050565b6000602082019050919050565b600082825260208201905092915050565b600082825260208201905092915050565b600082825260208201905092915050565b600082825260208201905092915050565b600082825260208201905092915050565b600081905092915050565b60006144fb82614615565b915061450683614615565b9250827fffffffffffffffffffffffffffffffffffffffffffffffffffffffffffffffff0382111561453b5761453a61473e565b5b828201905092915050565b600061455182614615565b915061455c83614615565b92508261456c5761456b61476d565b5b828204905092915050565b600061458282614615565b915061458d83614615565b9250828210156145a05761459f61473e565b5b828203905092915050565b60006145b6826145f5565b9050919050565b60008115159050919050565b60007fffffffff0000000000000000000000000000000000000000000000000000000082169050919050565b600073ffffffffffffffffffffffffffffffffffffffff82169050919050565b6000819050919050565b82818337600083830152505050565b60005b8381101561464c578082015181840152602081019050614631565b8381111561465b576000848401525b50505050565b6000600282049050600182168061467957607f821691505b6020821081141561468d5761468c61479c565b5b50919050565b61469c826147fa565b810181811067ffffffffffffffff821117156146bb576146ba6147cb565b5b80604052505050565b60006146cf82614615565b91507fffffffffffffffffffffffffffffffffffffffffffffffffffffffffffffffff8214156147025761470161473e565b5b600182019050919050565b600061471882614615565b915061472383614615565b9250826147335761473261476d565b5b828206905092915050565b7f4e487b7100000000000000000000000000000000000000000000000000000000600052601160045260246000fd5b7f4e487b7100000000000000000000000000000000000000000000000000000000600052601260045260246000fd5b7f4e487b7100000000000000000000000000000000000000000000000000000000600052602260045260246000fd5b7f4e487b7100000000000000000000000000000000000000000000000000000000600052604160045260246000fd5b6000601f19601f8301169050919050565b7f4552433732313a207472616e7366657220746f206e6f6e20455243373231526560008201527f63656976657220696d706c656d656e7465720000000000000000000000000000602082015250565b7f4552433732313a207472616e736665722066726f6d20696e636f72726563742060008201527f6f776e6572000000000000000000000000000000000000000000000000000000602082015250565b7f4552433732313a20746f6b656e20616c7265616479206d696e74656400000000600082015250565b7f4552433732313a207472616e7366657220746f20746865207a65726f2061646460008201527f7265737300000000000000000000000000000000000000000000000000000000602082015250565b7f4552433732313a20617070726f766520746f2063616c6c657200000000000000600082015250565b7f4552433732313a206f70657261746f7220717565727920666f72206e6f6e657860008201527f697374656e7420746f6b656e0000000000000000000000000000000000000000602082015250565b7f4552433732313a20617070726f76652063616c6c6572206973206e6f74206f7760008201527f6e6572206e6f7220617070726f76656420666f7220616c6c0000000000000000602082015250565b7f4552433732313a2062616c616e636520717565727920666f7220746865207a6560008201527f726f206164647265737300000000000000000000000000000000000000000000602082015250565b7f4552433732313a206f776e657220717565727920666f72206e6f6e657869737460008201527f656e7420746f6b656e0000000000000000000000000000000000000000000000602082015250565b7f4552433732313a206d696e7420746f20746865207a65726f2061646472657373600082015250565b7f4552433732313a20617070726f76656420717565727920666f72206e6f6e657860008201527f697374656e7420746f6b656e0000000000000000000000000000000000000000602082015250565b7f4552433732314d657461646174613a2055524920717565727920666f72206e6f60008201527f6e6578697374656e7420746f6b656e0000000000000000000000000000000000602082015250565b7f4552433732313a20617070726f76616c20746f2063757272656e74206f776e6560008201527f7200000000000000000000000000000000000000000000000000000000000000602082015250565b7f4552433732313a207472616e736665722063616c6c6572206973206e6f74206f60008201527f776e6572206e6f7220617070726f766564000000000000000000000000000000602082015250565b614bf4816145ab565b8114614bff57600080fd5b50565b614c0b816145bd565b8114614c1657600080fd5b50565b614c22816145c9565b8114614c2d57600080fd5b50565b614c3981614615565b8114614c4457600080fd5b5056fea2646970667358221220bd018695c9ea2f888d564fdcee06e43b6d7564a7f73464ff6a109690c92f71d364736f6c63430008040033",
  "linkReferences": {},
  "deployedLinkReferences": {}
}